:100000000C945D000C947A000C947A000C947A00A5
:100010000C947A000C947A000C947A000C94610190
:100020000C947A000C947A000C947A000C947A0068
:100030000C947A000C947A000C947A000C947A0058
:100040000C9417010C947A000C947A000C947A00AA
:100050000C947A000C947A000C947A000C947A0038
:100060000C947A000C947A00000000080002010051
:100070000003040700000000000000000200000070
:1000800000250028002B0000000000240027002A83
:100090000004040404040404040202020202020331
:1000A000030303030301020408102040800102043B
:1000B0000810200102040810200011241FBECFEFF9
:1000C000D8E0DEBFCDBF12E0A0E0B1E0E8E0FCE0A8
:1000D00002C005900D92A234B107D9F722E0A2E444
:1000E000B2E001C01D92AC35B207E1F70E94BD013C
:1000F0000C9402060C9400003FB7F89480915802CB
:1001000090915902A0915A02B0915B0226B5A89B2A
:1001100005C02F3F19F00196A11DB11D3FBFBA2F99
:10012000A92F982F8827BC01CD01620F711D811D59
:10013000911D42E0660F771F881F991F4A95D1F7DE
:1001400008959091000189130DC0ECE7F0E0E4916F
:100150009FEF90930001E13009F431C068F1E23083
:1001600009F433C090E0FC01E859FF4F2491FC01F1
:10017000EB55FF4F3491FC01EF56FF4FE491EE2316
:10018000D1F0222351F0233009F43AC078F5213020
:1001900009F43CC0223009F43DC0F0E0EE0FFF1F2F
:1001A000E358FF4FA591B4918FB7F894EC91309537
:1001B0003E233C938FBF089510926E00D3CF909151
:1001C0006F009D7F90936F00CDCF909170009D7FC9
:1001D0009093700091E09093B0009091B100987F5F
:1001E00094609093B1001092B300BCCF2730A9F077
:1001F0002830C9F0243089F6809180008F7D03C0BB
:10020000809180008F7780938000C7CF84B58F77EF
:1002100084BDC3CF84B58F7DFBCF8091B0008F7735
:100220008093B000BACF8091B0008F7DF9CF1F923C
:100230000F920FB60F9211242F933F938F939F939A
:10024000AF93BF938091540290915502A0915602B2
:10025000B09157023091530223E0230F2D3758F508
:100260000196A11DB11D20935302809354029093D7
:100270005502A0935602B093570280915802909174
:100280005902A0915A02B0915B020196A11DB11DC5
:100290008093580290935902A0935A02B0935B0244
:1002A000BF91AF919F918F913F912F910F900FBE72
:1002B0000F901F90189526E8230F0296A11DB11DDF
:1002C000D2CF1F920F920FB60F9211242F933F930C
:1002D0004F935F936F937F938F939F93AF93BF934E
:1002E000EF93FF938091470290914802A0914902B9
:1002F000B0914A02892B8A2B8B2BD1F1909142022B
:10030000E0914302F09144028081892780838091AB
:10031000470290914802A0914902B0914A021816F2
:1003200019061A061B069CF4809147029091480218
:10033000A0914902B0914A020197A109B1098093A5
:10034000470290934802A0934902B0934A02FF915A
:10035000EF91BF91AF919F918F917F916F915F913D
:100360004F913F912F910F900FBE0F901F901895B6
:10037000809100010E94A100EACFCF93DF9300D0CB
:1003800000D000D01F92CDB7DEB7789484B58260DC
:1003900084BD84B5816084BD85B5826085BD85B529
:1003A000816085BD80916E00816080936E001092A7
:1003B0008100809181008260809381008091810022
:1003C00081608093810080918000816080938000B3
:1003D0008091B10084608093B1008091B000816011
:1003E0008093B00080917A00846080937A0080913D
:1003F0007A00826080937A0080917A008160809395
:100400007A0080917A00806880937A001092C1000F
:1004100001E011E0F80182819381F5ECF89F100171
:10042000F99F300C1124F8010190F081E02DFE833A
:10043000ED83809100012101032C000C66087708F0
:100440008B30C1F5ECE7F0E0F491FF83FF81F7FF1B
:100450007FC0C301B2010E94B2042DEC3CEC4CE819
:100460005FE30E9416050E947A046B01770FEE0885
:10047000FF080E947C004B015C01C114D104E1041F
:10048000F10409F423C20E947C00681979098A09E1
:100490009B09683E73408105910578F391E0C91A84
:1004A000D108E108F108E8EE8E0EE3E09E1EA11CE3
:1004B000B11CE3CF8F3F69F62BE020930001ECE7FE
:1004C000F0E0F491FF83FF3F21F2F13009F410C115
:1004D00030F1F23009F0BACF1092B0001092B100B2
:1004E0008091B00082608093B0008091B100816003
:1004F0008093B100ECE9F0E08491E82FF0E0EE0F9A
:10050000FF1FE358FF4F859194919093440280938D
:100510004302E0EBF0E084918093420219C014BCE6
:1005200015BC84B5826084BD85B5816085BDECE96C
:10053000F0E08491E82FF0E0EE0FFF1FE358FF4F4B
:1005400085919491E0EBF0E08491809346021F82C4
:10055000E0EBF0E04491ECE9F0E08491882399F03D
:1005600090E0880F991FFC01E957FF4FA591B491C6
:10057000FC01E358FF4F259134918FB7F8949C917B
:10058000492B4C938FBF8D819E814C01B12CA12CA6
:1005900060E072E18AE790E0A50194010E94CD0538
:1005A00029833A834B835C8369017A0191E0C91AFC
:1005B000D108E108F1088F818D7F09F02FC1EFEF9D
:1005C000CE16D104E104F10409F00CF4FCC060E49F
:1005D00072E48FE090E0A50194010E94CD056901CD
:1005E0007A01F1E0CF1AD108E108F1082F81223019
:1005F00009F09DC08FEFC816D104E104F10409F0A1
:100600000CF476C160E970ED83E090E0A5019401FF
:100610000E94CD0569017A0191E0C91AD108E1086B
:10062000F10883E0EFEFCE16D104E104F10409F004
:100630000CF457C068E478EE81E090E0A5019401E5
:100640000E94CD0569017A0181E0C81AD108E1084C
:10065000F10884E09FEFC916D104E104F10409F028
:100660000CF43FC064E274EF80E090E0A5019401D7
:100670000E94CD0569017A01E1E0CE1AD108E108B6
:10068000F10885E09FEFC916D104E104F10449F1B6
:1006900040F162E17AE780E090E0A50194010E94D8
:1006A000CD0569017A01F1E0CF1AD108E108F1081E
:1006B00086E02FEFC216D104E104F10491F088F036
:1006C000C980DA80EB80FC808AE0F594E794D794C7
:1006D000C7948A95D1F721E0C21AD108E108F10840
:1006E00087E09091B100987F892B8093B10073C00F
:1006F0001092800010928100809181008860809328
:10070000810080918100816080938100ECE9F0E0BC
:100710008491E82FF0E0EE0FFF1FE358FF4F859123
:100720009491E0EBF0E084918093450211CFFFEFCC
:10073000CF16D104E104F10409F00CF46DC068E4B3
:1007400078EE81E090E0A50194010E94CD05690159
:100750007A0181E0C81AD108E108F1089F8184E09C
:10076000911190CF83E0EFEFCE16D104E104F104B4
:1007700071F16CF162E17AE780E090E0A50194010B
:100780000E94CD0569017A01F1E0CF1AD108E10894
:10079000F10884E02FEFC216D104E104F104B9F0AE
:1007A000B0F0C980DA80EB80FC809AE0F594E794A1
:1007B000D794C7949A95D1F7F1E0CF1AD108E10800
:1007C000F10885E004C081E09F8191118ACF95B541
:1007D000987F892B85BD2FEF3FEFA901411451046C
:1007E0006104710409F042C08F81813009F44CC06A
:1007F000823009F45BC081112CCEC7BC20934F021C
:1008000030935002409351025093520280916E00F7
:10081000826080936E001DCE82E0D6CF91E0C1143D
:10082000D104E1E0EE06F10484F068E478EE81E0C2
:1008300090E0A50194010E94CD0569017A01F1E0E3
:10084000CF1AD108E108F10893E02F81213019F681
:1008500080918100887F892B809381002FEF3FEF6B
:10086000A901411451046104710471F02D813E818C
:10087000220F331FD1010E94EC0528EE33E040E047
:1008800050E00E94AB05B0CFD0928900C0928800A2
:1008900020934B0230934C0240934D0250934E02F2
:1008A00080916F00826080936F00D3CDC092B300BF
:1008B00020934702309348024093490250934A02E2
:1008C00080917000826080937000C3CD8BE00E94A5
:1008D000A1000C5F1F4F81E492E08017910709F09F
:1008E00099CDE0E0F0E0EF2BE1F30E940000F9CFBA
:1008F00082E0F7CE0E9481046894B1110C94100537
:1009000008950E94F50488F09F5798F0B92F992711
:10091000B751B0F0E1F0660F771F881F991F1AF0EA
:10092000BA95C9F714C0B13091F00E940F05B1E03B
:1009300008950C940F05672F782F8827B85F39F03A
:10094000B93FCCF3869577956795B395D9F73EF483
:1009500090958095709561957F4F8F4F9F4F08952B
:10096000E89409C097FB3EF4909580957095619549
:100970007F4F8F4F9F4F9923A9F0F92F96E9BB27FF
:100980009395F695879577956795B795F111F8CF7B
:10099000FAF4BB0F11F460FF1BC06F5F7F4F8F4FE6
:1009A0009F4F16C0882311F096E911C0772321F0DC
:1009B0009EE8872F762F05C0662371F096E8862F74
:1009C00070E060E02AF09A95660F771F881FDAF7CB
:1009D000880F9695879597F9089557FD9058440F7D
:1009E000551F59F05F3F71F04795880F97FB991F8E
:1009F00061F09F3F79F0879508951216130614064B
:100A0000551FF2CF4695F1DF08C0161617061806D7
:100A1000991FF1CF86957105610508940895E894B2
:100A2000BB2766277727CB0197F908950E942905F0
:100A30000C949A050E948C0538F00E94930520F0D2
:100A4000952311F00C9483050C94890511240C94C2
:100A500010050E94ED0470F3959FC1F3950F50E0CF
:100A6000551F629FF001729FBB27F00DB11D639F60
:100A7000AA27F00DB11DAA1F649F6627B00DA11D06
:100A8000661F829F2227B00DA11D621F739FB00DAC
:100A9000A11D621F839FA00D611D221F749F33271C
:100AA000A00D611D231F849F600D211D822F762FB5
:100AB0006A2F11249F5750409AF0F1F088234AF092
:100AC000EE0FFF1FBB1F661F771F881F91505040FE
:100AD000A9F79E3F510580F00C9483050C941005F6
:100AE0005F3FE4F3983ED4F3869577956795B79585
:100AF000F795E7959F5FC1F7FE2B880F911D96959F
:100B0000879597F9089597F99F6780E870E060E00E
:100B100008959FEF80EC089500240A941616170696
:100B200018060906089500240A94121613061406DE
:100B300005060895092E0394000C11F4882352F041
:100B4000BB0F40F4BF2B11F460FF04C06F5F7F4FF9
:100B50008F4F9F4F0895A1E21A2EAA1BBB1BFD01C8
:100B60000DC0AA1FBB1FEE1FFF1FA217B307E4078C
:100B7000F50720F0A21BB30BE40BF50B661F771FE4
:100B8000881F991F1A9469F76095709580959095C4
:100B90009B01AC01BD01CF010895052E97FB1EF40A
:100BA00000940E94E40557FD07D00E94AB0507FCA6
:100BB00003D04EF40C94E405509540953095219562
:100BC0003F4F4F4F5F4F0895909580957095619579
:100BD0007F4F8F4F9F4F08950E94F305B7FF0895F1
:100BE000821B930B0895A29FB001B39FC001A39FE6
:100BF000700D811D1124911DB29F700D811D112456
:080C0000911D0895F894FFCF47
:100C0800FF8801040088010400B8010300EE010117
:100C1800000B020400B8010400880103005D010113
:100C2800005D0104004A010400880103000B020171
:100C38000093020400B8010300EE0101000B020456
:100C4800004A0104007201040088010800880104B8
:100C58000088010400B8010300EE0101000B020442
:100C680000B8010200B8010200880103005D01011B
:100C7800005D0102005D0102004A010400880104D0
:100C880000930204004B0203000B020100EE010472
:100C980000EE010200EE010200B8010200B80102F4
:100CA80000880108008801040088010400B80102D6
:100CB80000880102008801020088010200880104FE
:100CC80000B8010200EE0102000B0204000B02044E
:100CD80000000010000B0202000B020200EE0102ED
:100CE80000B8010200B80102008801020088010270
:100CF80000930204000B020400EE010300B8010196
:100D080000880104004B0202004B0202000B0202A1
:100D1800000B020200EE010800930204000B02041B
:100D280000EE010300B801010088010400930202EB
:100D380000930202004B0202004B0202000B020861
:020D48000000A9
:00000001FF
