:100000000C9435000C945D000C945D000C945D0024
:100010000C945D000C945D000C945D000C945D00EC
:100020000C945D000C945D000C945D000C945D00DC
:100030000C945D000C945D000C945D000C945D00CC
:100040000C9414020C945D000C9484020C945E02D7
:100050000C945D000C945D000C945D000C945D00AC
:100060000C945D000C945D00AA0311241FBECFEF19
:10007000D8E0DEBFCDBF11E0A0E0B1E0E2E0F8E003
:1000800002C005900D92AC33B107D9F721E0ACE383
:10009000B1E001C01D92AE3EB207E1F710E0C5E34A
:1000A000D0E004C02197FE010E94F903C433D107B8
:1000B000C9F70E94B6020C94FF030C9400003FB7EE
:1000C000F89480914D0190914E01A0914F01B09113
:1000D000500126B5A89B05C02F3F19F00196A11D20
:1000E000B11D3FBFBA2FA92F982F8827BC01CD0182
:1000F000620F711D811D911D42E0660F771F881FE1
:10010000991F4A95D1F708958F929F92AF92BF920F
:10011000CF92DF92EF92FF924B015C010E945F0051
:100120006B017C010E945F006C197D098E099F099B
:10013000683E734081059105A8F321E0821A910879
:10014000A108B10888EEC80E83E0D81EE11CF11C9E
:1001500081149104A104B10429F7FF90EF90DF907E
:10016000CF90BF90AF909F908F900895AF92BF9225
:10017000CF92DF92EF92FF920F931F93CF93DF9373
:100180006C017B018B01040F151FEB015E01AE18A2
:10019000BF08C017D10759F06991D601ED91FC91C4
:1001A0000190F081E02DC6010995892B79F7C501F1
:1001B000DF91CF911F910F91FF90EF90DF90CF9043
:1001C000BF90AF900895FC01538D448D252F30E0F2
:1001D000842F90E0821B930B541710F0CF96089554
:1001E00001970895FC01918D828D981761F0A28D81
:1001F000AE0FBF2FB11D5D968C91928D9F5F9F7347
:10020000928F90E008958FEF9FEF0895FC01918DFC
:10021000828D981731F0828DE80FF11D858D90E069
:1002200008958FEF9FEF0895FC01918D228D892F06
:1002300090E0805C9F4F821B91098F7399270895EE
:1002400081E591E00E94140121E0892B09F420E06E
:10025000822F089580E090E0892B29F00E942001F0
:1002600081110C9400000895FC01A48DA80FB92FF2
:10027000B11DA35ABF4F2C91848D90E001968F73CE
:100280009927848FA689B7892C93A089B1898C91ED
:10029000837080648C93938D848D981306C002883C
:1002A000F389E02D80818F7D80830895EF92FF9206
:1002B0000F931F93CF93DF93EC0181E0888F9B8D89
:1002C0008C8D98131AC0E889F989808185FF15C043
:1002D0009FB7F894EE89FF896083E889F989808166
:1002E0008370806480839FBF81E090E0DF91CF9135
:1002F0001F910F91FF90EF900895F62E0B8D10E057
:100300000F5F1F4F0F731127E02E8C8D8E110CC0C5
:100310000FB607FCFACFE889F989808185FFF5CF10
:10032000CE010E943401F1CFEB8DEC0FFD2FF11DBA
:10033000E35AFF4FF0829FB7F8940B8FEA89FB894D
:1003400080818062CFCFCF93DF93EC01888D8823AB
:10035000B9F0AA89BB89E889F9898C9185FD03C028
:10036000808186FD0DC00FB607FCF7CF8C9185FF0D
:10037000F2CF808185FFEDCFCE010E943401E9CF1D
:10038000DF91CF910895FC0101900020E9F73197AA
:10039000AF01481B590BBC0181E591E00C94B600FC
:1003A0008F929F92AF92BF920F931F93CF93DF9341
:1003B000CDB7DEB7A1970FB6F894DEBF0FBECDBFA5
:1003C00019A2423008F44AE08E010F5D1F4F842EBF
:1003D000912CB12CA12CA50194010E94D703E62FEA
:1003E000B901CA01EA30F4F4E05DD801EE938D0161
:1003F000232B242B252B79F790E080E0109719F020
:10040000CD010E94C301A1960FB6F894DEBF0FBEC6
:10041000CDBFDF91CF911F910F91BF90AF909F9073
:100420008F900895E95CE1CF1F920F920FB60F9263
:1004300011242F933F938F939F93AF93BF938091FA
:10044000490190914A01A0914B01B0914C0130912A
:10045000480123E0230F2D3758F50196A11DB11D4A
:10046000209348018093490190934A01A0934B0146
:10047000B0934C0180914D0190914E01A0914F019C
:10048000B09150010196A11DB11D80934D01909333
:100490004E01A0934F01B0935001BF91AF919F9136
:1004A0008F913F912F910F900FBE0F901F90189535
:1004B00026E8230F0296A11DB11DD2CF1F920F92E5
:1004C0000FB60F9211242F933F934F935F936F9327
:1004D0007F938F939F93AF93BF93EF93FF9381E5A8
:1004E00091E00E943401FF91EF91BF91AF919F91F4
:1004F0008F917F916F915F914F913F912F910F90CD
:100500000FBE0F901F9018951F920F920FB60F926B
:1005100011242F938F939F93EF93FF93E0916101A9
:10052000F09162018081E0916701F091680182FDA4
:100530001BC0908180916A018F5F8F7320916B0146
:10054000821741F0E0916A01F0E0EF5AFE4F958F7B
:1005500080936A01FF91EF919F918F912F910F905E
:100560000FBE0F901F9018958081F4CF789484B5BA
:10057000826084BD84B5816084BD85B5826085BD9F
:1005800085B5816085BD80916E00816080936E002D
:10059000109281008091810082608093810080911F
:1005A00081008160809381008091800081608093D0
:1005B00080008091B10084608093B1008091B00090
:1005C00081608093B00080917A00846080937A008B
:1005D00080917A00826080937A0080917A008160B5
:1005E00080937A0080917A00806880937A001092DC
:1005F000C100E0916101F091620182E08083E091AD
:100600005D01F0915E011082E0915F01F091600167
:100610008FEC808310926901E0916501F091660191
:1006200086E08083E0916301F091640180818061C4
:100630008083E0916301F091640180818860808310
:10064000E0916301F0916401808180688083E09192
:100650006301F091640180818F7D8083C0E0D0E0F0
:1006600082E191E00E94C3012FB7F89460914901A3
:1006700070914A0180914B0190914C012FBF609382
:1006800044017093450180934601909347014AE0ED
:100690000E94D00164EF71E080E090E00E9484004D
:1006A0008AE191E00E94C3012FB7F894609149015B
:1006B00070914A0180914B0190914C012FBF609342
:1006C00040017093410180934201909343014AE0BD
:1006D0000E94D0018091400190914101A09142017E
:1006E000B091430140914401509145016091460110
:1006F00070914701841B950BA60BB70B80933C01AF
:1007000090933D01A0933E01B0933F0184E291E0BC
:100710000E94C30160913C0170913D0180913E01B6
:1007200090913F014AE00E94D00188E391E00E944D
:10073000C30168EE73E080E090E00E94840020979F
:1007400009F48ECF0E942001882309F489CF0E94EA
:10075000000086CFE1E5F1E01382128288EE93E09B
:10076000A0E0B0E084839583A683B78384E091E022
:100770009183808385EC90E09587848784EC90E07A
:100780009787868780EC90E0918B808B81EC90E05E
:10079000938B828B82EC90E0958B848B86EC90E03F
:1007A000978B868B118E128E138E148E0895A1E274
:1007B0001A2EAA1BBB1BFD010DC0AA1FBB1FEE1FDB
:1007C000FF1FA217B307E407F50720F0A21BB30B26
:1007D000E40BF50B661F771F881F991F1A9469F7A2
:1007E00060957095809590959B01AC01BD01CF01FE
:1007F0000895EE0FFF1F0590F491E02D0994F894F1
:02080000FFCF28
:10080200000000005601B600E300A3011401F2004B
:10081200060154696D65313A20002C2054696D65DA
:10082200323A20002C2054696D6520446966666561
:0C08320072656E63653A20000D0A00003C
:00000001FF
