:100000000C9462000C948A000C948A000C948A0070
:100010000C948A000C948A000C948A000C948A0038
:100020000C948A000C948A000C948A000C948A0028
:100030000C948A000C948A000C948A000C948A0018
:100040000C94A4020C948A000C9414030C94EE02F9
:100050000C948A000C948A000C948A000C948A00F8
:100060000C948A000C948A000000000024002700F1
:100070002A000000000023002600290000000000E4
:10008000250028002B0004040404040404040202D4
:100090000202020203030303030301020408102007
:1000A0004080010204081020010204081020000012
:1000B0000008000201000003040700000000000027
:1000C0000000E90411241FBECFEFD8E0DEBFCDBF92
:1000D00011E0A0E0B1E0EAE4FCE002C005900D927E
:1000E000A439B107D9F722E0A4E9B1E001C01D921B
:1000F000A834B207E1F710E0C2E6D0E004C02197CF
:10010000FE010E941D06C136D107C9F70E944603B1
:100110000C9423060C940000833081F028F4813085
:1001200099F08230A9F008958730A9F08830C9F09D
:100130008430B1F4809180008F7D03C08091800075
:100140008F7780938000089584B58F7784BD08955C
:1001500084B58F7DFBCF8091B0008F778093B00006
:1001600008958091B0008F7DF9CF1F93CF93DF93D7
:10017000EBEBF0E09491E7EAF0E0D491E3E9F0E012
:10018000C491CC23B9F0182F992319F0892F0E941C
:100190008C00EC2FF0E0EE0FFF1FE458FF4FA5910D
:1001A000B4918FB7F894EC91111108C0D095DE236B
:1001B000DC938FBFDF91CF911F910895DE2BF8CF95
:1001C0003FB7F8948091A7019091A801A091A9014F
:1001D000B091AA0126B5A89B05C02F3F19F0019642
:1001E000A11DB11D3FBFBA2FA92F982F8827BC0191
:1001F000CD01620F711D811D911D42E0660F771FB9
:10020000881F991F4A95D1F708958F929F92AF92B8
:10021000BF92CF92DF92EF92FF926B017C010E941E
:10022000E0004B015C01C114D104E104F104B9F018
:100230000E94E000681979098A099B09683E7340A9
:100240008105910580F321E0C21AD108E108F10887
:1002500088EE880E83E0981EA11CB11CE4CFFF90AD
:10026000EF90DF90CF90BF90AF909F908F900895C8
:10027000AF92BF92CF92DF92EF92FF920F931F93B4
:10028000CF93DF936C017B018B01040F151FEB01F2
:100290005E01AE18BF08C017D10759F06991D601A9
:1002A000ED91FC910190F081E02DC6010995892B1B
:1002B00079F7C501DF91CF911F910F91FF90EF90DA
:1002C000DF90CF90BF90AF900895FC01538D448D87
:1002D000252F30E0842F90E0821B930B541710F0F1
:1002E000CF96089501970895FC01918D828D9817FE
:1002F00061F0A28DAE0FBF2FB11D5D968C91928DD6
:100300009F5F9F73928F90E008958FEF9FEF089506
:10031000FC01918D828D981731F0828DE80FF11DCF
:10032000858D90E008958FEF9FEF0895FC01918DEA
:10033000228D892F90E0805C9F4F821B91098F73E3
:10034000992708958BEA91E00E94960121E0892B7C
:1003500009F420E0822F089580E090E0892B29F0B5
:100360000E94A20181110C9400000895FC01A48D4B
:10037000A80FB92FB11DA35ABF4F2C91848D90E0C7
:1003800001968F739927848FA689B7892C93A089AA
:10039000B1898C91837080648C93938D848D981334
:1003A00006C00288F389E02D80818F7D80830895C7
:1003B000EF92FF920F931F93CF93DF93EC0181E0B5
:1003C000888F9B8D8C8D98131AC0E889F98980815C
:1003D00085FF15C09FB7F894EE89FF896083E8898F
:1003E000F98980818370806480839FBF81E090E081
:1003F000DF91CF911F910F91FF90EF900895F62E0E
:100400000B8D10E00F5F1F4F0F731127E02E8C8DA7
:100410008E110CC00FB607FCFACFE889F9898081EC
:1004200085FFF5CFCE010E94B601F1CFEB8DEC0F29
:10043000FD2FF11DE35AFF4FF0829FB7F8940B8F09
:10044000EA89FB8980818062CFCFCF93DF93EC0173
:10045000888D8823B9F0AA89BB89E889F9898C91AC
:1004600085FD03C0808186FD0DC00FB607FCF7CF68
:100470008C9185FFF2CF808185FFEDCFCE010E9468
:10048000B601E9CFDF91CF910895FC0101900020E2
:10049000E9F73197AF01481B590BBC018BEA91E09A
:1004A0000C9438018F929F92AF92BF920F931F933B
:1004B000CF93DF93CDB7DEB7A1970FB6F894DEBF29
:1004C0000FBECDBF19A2423008F44AE08E010F5D85
:1004D0001F4F842E912CB12CA12CA50194010E94B8
:1004E000EC05E62FB901CA01EA30F4F4E05DD80169
:1004F000EE938D01232B242B252B79F790E080E0C0
:10050000109719F0CD010E944502A1960FB6F894FC
:10051000DEBF0FBECDBFDF91CF911F910F91BF9076
:10052000AF909F908F900895E95CE1CFCF93DF93D8
:100530000E944502EC0186E191E00E9445028C0F89
:100540009D1FDF91CF9108951F920F920FB60F92CA
:1005500011242F933F938F939F93AF93BF938091D9
:10056000A3019091A401A091A501B091A6013091A1
:10057000A20123E0230F2D3758F50196A11DB11DCF
:100580002093A2018093A3019093A401A093A501BD
:10059000B093A6018091A7019091A801A091A90113
:1005A000B091AA010196A11DB11D8093A70190935E
:1005B000A801A093A901B093AA01BF91AF919F9107
:1005C0008F913F912F910F900FBE0F901F90189514
:1005D00026E8230F0296A11DB11DD2CF1F920F92C4
:1005E0000FB60F9211242F933F934F935F936F9306
:1005F0007F938F939F93AF93BF93EF93FF938BEA78
:1006000091E00E94B601FF91EF91BF91AF919F9150
:100610008F917F916F915F914F913F912F910F90AB
:100620000FBE0F901F9018951F920F920FB60F924A
:1006300011242F938F939F93EF93FF93E091BB012E
:10064000F091BC018081E091C101F091C20182FD75
:100650001BC090818091C4018F5F8F732091C50171
:10066000821741F0E091C401F0E0E555FE4F958F0F
:100670008093C401FF91EF919F918F912F910F90E3
:100680000FBE0F901F9018958081F4CF789484B599
:10069000826084BD84B5816084BD85B5826085BD7E
:1006A00085B5816085BD80916E00816080936E000C
:1006B00010928100809181008260809381008091FE
:1006C00081008160809381008091800081608093AF
:1006D00080008091B10084608093B1008091B0006F
:1006E00081608093B00080917A00846080937A006A
:1006F00080917A00826080937A0080917A00816094
:1007000080937A0080917A00806880937A001092BA
:10071000C100E7EAF0E02491E3E9F0E08491882366
:1007200099F090E0880F991FFC01E859FF4FA591BF
:10073000B491FC01E458FF4F859194918FB7F894E0
:10074000EC91E22BEC938FBFCCE9D0E0FE01249139
:1007500008E810E0F80184918823C9F090E0880F40
:10076000991FFC01E859FF4FA591B491FC01E45891
:10077000FF4F459154913FB7F8949C91822F8095FB
:1007800098239C93FA019081892380833FBFE09155
:10079000BB01F091BC0182E08083E091B701F09150
:1007A000B8011082E091B901F091BA018FEC808319
:1007B0001092C301E091BF01F091C00186E08083F7
:1007C000E091BD01F091BE01808180618083E09164
:1007D000BD01F091BE01808188608083E091BD0100
:1007E000F091BE01808180688083E091BD01F0912D
:1007F000BE0180818F7D808389E191E00E94960215
:100800000E94620528E233E240E050E00E94BA050F
:1008100068517C4F8F4F9F4F0E94050181E00E94DD
:10082000B5002FB7F8948091A3019091A401A091F5
:10083000A501B091A6012FBF8093980190939901D3
:10084000A0939A01B0939B0183E491E00E9445023A
:10085000609198017091990180919A0190919B010A
:100860004AE00E94520286E191E00E94450290EB2C
:10087000E92E90E0F92E20E0C22E20E0D22EAA240C
:10088000A394B12CF7018491FE019490F801849017
:1008900081100EC01092A1011092A001C114D104C8
:1008A00089F30E94A201882369F30E940000EACF25
:1008B00081110E948C00E82DF0E0EE0FFF1FEE5832
:1008C000FF4FA591B4918C91982221F3B092A10190
:1008D000A092A0018BE491E00E9445024090A0010B
:1008E0005090A101052C000C660877084AE0C3016E
:1008F000B20177FE0DC06DE28BEA91E00E94D80153
:1009000066277727CB0164197509860997094AE09C
:100910000E94520286E191E00E9445028AE591E040
:100920000E9445022FB7F8946091A3017091A40131
:100930008091A5019091A6012FBF60939C017093B7
:100940009D0180939E0190939F014AE00E94520274
:1009500086E191E00E94450280919C0190919D0169
:10096000A0919E01B0919F014091980150919901F1
:1009700060919A0170919B01841B950BA60BB70B9C
:100980008093940190939501A0939601B093970161
:1009900082E691E00E9496028AE791E00E94450279
:1009A00060919401709195018091960190919701C9
:1009B0004AE00E94520280E991E00E94960280E0A3
:1009C0000E94B50060EA76E881E090E00E940501AF
:1009D00065CFEBEAF1E01382128288EE93E0A0E0AB
:1009E000B0E084839583A683B78388E091E0918308
:1009F000808385EC90E09587848784EC90E09787EE
:100A0000868780EC90E0918B808B81EC90E0938BDB
:100A1000828B82EC90E0958B848B86EC90E0978BB8
:100A2000868B118E128E138E148E08958F929F9244
:100A3000AF92BF92CF92DF92EF92FF92CF93DF936C
:100A4000EC01688179818A819B816115710581053D
:100A5000910521F464E279ED8BE597E02DE133EF28
:100A600041E050E00E94BA0549015A019B01AC01E6
:100A7000A7EAB1E40E94D9056B017C01ACEEB4EFAA
:100A8000A50194010E94E705C60ED71EE81EF91EB7
:100A9000F7FE06C081E0C81AD108E10880E8F80A2C
:100AA000C882D982EA82FB82C701B6019F77DF91B3
:100AB000CF91FF90EF90DF90CF90BF90AF909F903D
:100AC0008F9008958F929F92AF92BF92CF92DF92B4
:100AD000EF92FF92609100017091010180910201FB
:100AE00090910301611571058105910521F464E27E
:100AF00079ED8BE597E02DE133EF41E050E00E9486
:100B0000BA0549015A019B01AC01A7EAB1E40E9470
:100B1000D9056B017C01ACEEB4EFA50194010E94F4
:100B2000E705C60ED71EE81EF91EF7FE06C081E0D7
:100B3000C81AD108E10880E8F80AC0920001D092F2
:100B40000101E0920201F0920301C701B6019F7713
:100B5000FF90EF90DF90CF90BF90AF909F908F90DD
:100B600008956093000170930101809302019093B6
:100B700003010895052E97FB1EF400940E94D105F1
:100B800057FD07D00E94EC0507FC03D04EF40C94EF
:100B9000D10550954095309521953F4F4F4F5F4F70
:100BA000089590958095709561957F4F8F4F9F4FD9
:100BB00008950E940E06A59F900DB49F900DA49FCE
:100BC000800D911D11240895B7FF0C94D9050E9442
:100BD000D905821B930B0895A1E21A2EAA1BBB1BF9
:100BE000FD010DC0AA1FBB1FEE1FFF1FA217B307F9
:100BF000E407F50720F0A21BB30BE40BF50B661F0F
:100C0000771F881F991F1A9469F7609570958095D2
:100C100090959B01AC01BD01CF010895A29FB00149
:100C2000B39FC001A39F700D811D1124911DB29F20
:100C3000700D811D1124911D0895EE0FFF1F059069
:0A0C4000F491E02D0994F894FFCF21
:100C4A000100000000000000D801380165012502FA
:100C5A009601740188010D0A005768656E20746850
:100C6A006520524544206C69676874206973206F57
:100C7A006E2C20707265737320746865204252412D
:100C8A004B450054696D65313A2000627574746F82
:100C9A006E5374617465203D200054696D65323A63
:100CAA002000427574746F6E2068617320626565F6
:100CBA006E207072657373656400596F7572207265
:100CCA0065616374696F6E2074696D65203D2000EB
:040CDA00206D730016
:00000001FF
